:020000040800F2
:1000000068E101200103000839160008D50A00083C
:10001000351600081D0A0008A1170008000000009E
:10002000000000000000000000000000B116000801
:10003000510A00080000000041160008D51600080B
:100040001B0300081B0300081B0300081B03000818
:100050001B0300081B0300081B0300081B03000808
:100060001B0300081B0300081B0300081B030008F8
:100070001B0300081B0300081B0300081B030008E8
:100080001B0300081B0300081B0300081B030008D8
:100090001B0300081B0300081B0300081B030008C8
:1000A0001B0300086D1700081B0300081B03000852
:1000B0001B0300081B0300081B0300081B030008A8
:1000C0001B0300081B0300081B0300081B03000898
:1000D0001B0300081B0300081B0300081B03000888
:1000E0001B0300081B0300081B0300081B03000878
:1000F0001B0300081B0300081B0300081B03000868
:100100001B0300081B0300081B0300081B03000857
:100110001B0300081B0300081B0300081B03000847
:10012000210A00081B0300081B0300081B0300082A
:100130001B0300081B0300081B0300081B03000827
:100140001B0300081B0300081B0300081B03000817
:100150001B0300081B030008000000001B0300082D
:100160001B0300081B030008000000000000000043
:100170001B0300081B0300081B030008000000000D
:10018000000000001B0300081B0300081B030008FD
:100190001B03000800000000000000000000000039
:1001A0000000000000000000000000001B03000829
:1001B0001B030008000000001B03000800000000F3
:1001C000000000000000000000000000000000002F
:1001D00000000000000000001B0300081B030008D3
:1001E0001B0300081B0300081B0300081B03000877
:1001F0001B0300081B0300081B0300081B03000867
:100200001B0300081B0300081B03000800F002F892
:1002100000F067F80AA090E8000C82448344AAF139
:100220000107DA4501D100F05CF8AFF2090EBAE837
:100230000F0013F0010F18BFFB1A43F0010318471A
:10024000E47D0400047E04000A444FF0000C10F822
:10025000013B13F0070408BF10F8014B1D1108BF44
:1002600010F8015B641E05D010F8016B641E01F8E4
:10027000016BF9D113F0080F1EBF10F8014BAD1C34
:100280000C1B09D16D1E58BF01F801CBFAD505E052
:1002900014F8016B01F8016B6D1EF9D59142D6D3AC
:1002A000704700000023002400250026103A28BFD4
:1002B00078C1FBD8520728BF30C148BF0B607047D8
:1002C000642900F02181752900F01E81632900F066
:1002D0004183002070471FB52EF0DDFA1FBD10B519
:1002E00010BD00F059FB1146FFF7F5FF25F02CF982
:1002F00000F077FB03B4FFF7F2FF03BC02F05EFEF1
:100300000948804709480047FEE7FEE7FEE7FEE7A9
:10031000FEE7FEE7FEE7FEE7FEE7FEE704480549E5
:10032000054A064B70470000051700080D0200083B
:1003300068A1012068E1012068C1012068C1012095
:10034000704753EA020C00F069802DE9F04B4FF042
:100350000006002B1FBFB3FA83F503FA05F424FA55
:1003600005F65E4012BF1643B2FA82F502FA05F4B2
:10037000C5F120051EBF22FA05FC44EA0C04203515
:1003800056EA044C4FEA144418BF641C4FF00008AE
:100390004FF00009904271EB030C39D3002919BFCB
:1003A000B1FA81F701FA07F6B0FA80F700FA07F61A
:1003B000C7F120071EBF20FA07FC46EA0C062037CB
:1003C000B6FBF4FCA7EB0507103F07F01F0BCBF1C2
:1003D00020062CFA06F60CFA0BFB44BFB3460026A7
:1003E000202FA4BF5E464FF0000B5BEA060C08BF4F
:1003F0004FF0010B19EB0B0948EB0608ABFB027C35
:1004000006FB02CC0BFB03CCC01B71EB0C01C1E75C
:100410000B46024641464846BDE8F08B13B50843FB
:1004200018BF4FF0FF300146AFF30080BDE81C401D
:10043000704700000FB4044910B503AA029800F0F9
:1004400095FA10BC5DF814FBB40800202DE9F041CA
:100450000E460446002020622046E168884730B3FB
:10046000252805D0D4E901219047206A401CF2E7F5
:10047000E168204600278847050018D0A5F1410013
:10048000192802D820354FF4006732462946204605
:100490002760FFF715FF40B1012804D0F61D26F0B4
:1004A00007060836D8E7361DD6E72846DAE7206A79
:1004B000BDE8F08170B50C460546012A05D02878C4
:1004C000800600D5EA69002302E0012305E05B1CF9
:1004D000934202D2E05C0028F9D1A869E618C01A5C
:1004E000A861286A184428622846AFF3008004E017
:1004F000D5E9012114F8010B9047B442F8D32846FE
:10050000AFF3008070BD00002DE9F04106460024E5
:1005100010687529314616A510D0AFF30080002869
:1005200002DA404213A507E031688A0701D512A517
:1005300002E0490704D511A5012401E0AFF30080D2
:1005400000210A2206F1240709E0B0FBF2FCB0FB0F
:10055000F2F302FB1C00303078541846491C002886
:10056000F3D123462A463046BDE8F04100F076B983
:10057000000000002D0000002B0000002000000003
:1005800010B5044603E008F0FBFA401C09D014F84B
:10059000010B05490028F6D1BDE810400A2008F0FB
:1005A000EFBA4FF0FF3010BDB408002040EA01035D
:1005B000024630B59B0710D14FF0013400E008C26D
:1005C00008C91D1B9D4315EAC41FF8D013F0FF0195
:1005D00002F8011B0DD01B0AF8E711F8013B002BB4
:1005E00002F8013B05D011F8013B002B02F8013B5A
:1005F000F3D130BD10B5431C02E010F8011B71B1FE
:100600008107FAD14FF0013202C88C1A8C4314EAE8
:10061000C211F9D0C01A0A0603D0C01E10BDC01AFC
:1006200010BD0A0401D0801E10BD0902FCD0401E7E
:1006300010BD032A40F2308010F0030C00F015804A
:1006400011F8013BBCF1020F624498BF11F801CBD5
:1006500000F8013B38BF11F8013BA2F1040298BF3A
:1006600000F801CB38BF00F8013B11F0030300F0A4
:100670002580083AC0F0088051F8043B083A51F848
:1006800004CBA0E80810F5E7121D5CBF51F8043B4D
:1006900040F8043BAFF30080D20724BF11F8013BC0
:1006A00011F801CB48BF11F8012B24BF00F8013B22
:1006B00000F801CB48BF00F8012B704710B5203A75
:1006C000C0F00B80B1E81850A0E81850B1E81850FD
:1006D000A0E81850203ABFF4F5AF5FEA027C24BFCF
:1006E000B1E81850A0E8185044BF18C918C0BDE8B8
:1006F00010405FEA827C24BF51F8043B40F8043B81
:1007000008BF7047D20728BF31F8023B48BF11F835
:10071000012B28BF20F8023B48BF00F8012B70478F
:1007200002F0FF0343EA032242EA024200F00AB861
:1007300002F0FF0343EA032242EA024200F024B837
:100740004FF000020429C0F0128010F0030C00F0FA
:100750001B80CCF1040CBCF1020F18BF00F8012B78
:10076000A8BF20F8022BA1EB0C0100F00DB85FEA46
:10077000C17C24BF00F8012B00F8012B48BF00F812
:10078000012B70474FF0000200B513469446964681
:10079000203922BFA0E80C50A0E80C50B1F1200194
:1007A000BFF4F7AF090728BFA0E80C5048BF0CC042
:1007B0005DF804EB890028BF40F8042B08BF7047A0
:1007C00048BF20F8022B11F0804F18BF00F8012B12
:1007D000704700000000000030B44FF0013C50F8BA
:1007E000042B51F8043BCCFA52F4D51A20D1FCB9B1
:1007F00050F8042B51F8043BCCFA52F4D51A17D117
:10080000B4B950F8042B51F8043BCCFA52F4D51A81
:100810000ED16CB950F8042B51F8043BCCFA52F4C9
:10082000D51A05D1002CDAD030BC4FF0000070474B
:1008300029BAB1FA81F111F01801D1F120008440F8
:10084000F2D1CA40CB4012F0FF0213F0FF0330BCDC
:10085000D01A704770477047704770472DE9F047CE
:100860000D4699469246044600F124080168880620
:1008700004D5E06921F01001216000E00120A842C8
:1008800001DD471B00E00027A1697A1902EB09008E
:10089000081AA0612078C00602D42046AFF3008079
:1008A000002608E0D4E901211AF806009047206AE2
:1008B000401C761C20624E45F4DB2078C0060AD529
:1008C0002046AFF3008006E0D4E9012130209047B4
:1008D000206A401C2062381EA7F10107F4DC07E003
:1008E000D4E9012118F805009047206A401C2062D5
:1008F000281EA5F10105F3DC2046AFF30080207827
:10090000000602D50220BDE8F0870120FBE70000C9
:1009100001694A1C02610878704700B58FB0CDE9C3
:1009200001310021059105497944CDE903101146B3
:100930006846FFF78BFD0FB000BD0000E5FFFFFF2D
:1009400010B5436913B1AFF3008001E0FFF7B2FDCA
:10095000012010BD127800F124010A7000224A70B3
:100960000122EDE711684FF0FF32E9E7074B70B560
:100970000D467B44FFF7D1FF0446284600F008F8F7
:1009800010B14FF0FF3070BD204670BD0B820000EB
:10099000007B00F080007047754600F02BF8AE46F3
:1009A00005006946534620F00700854618B020B57B
:1009B000FFF7B4FCBDE820404FF000064FF0000701
:1009C0004FF000084FF0000BAC46ACE8C009ACE8B3
:1009D000C009ACE8C009ACE8C00921F007018D46A8
:1009E000704710B50446AFF300802046BDE81040C4
:1009F000FFF780BC004870472808002082B040F212
:100A0000CF1C00200021F0224FF4A073CDF800C0CD
:100A100000F080F80A202CF0F9FEFBE7FEE700006A
:100A200080B5022004F030FA002808BF80BD022003
:100A300004F01CFA0020C4F20200102108F0D8FCD7
:100A400040F6E820C2F20000BDE880400EF094BA03
:100A50007047000070B586B0064616200D46C0F2FD
:100A60003000012104F0D8F846F20844C4F2020430
:100A7000204604F065FA1020ADF80C0043F20C009B
:100A8000C4F2010001904FF480700490ADF814009E
:100A900001A92046ADF80E50029604F003FAA4F125
:100AA0000800012104F07AFA04F1FC000B2104F0A3
:100AB0007DFA20460221012204F03AFA3820002172
:100AC000002224F08FFF2046012104F0C9F906B06E
:100AD00070BD0000FEE70000F0B581B007462A2097
:100AE0001C4615460E4600F06FFD384600F032FDFC
:100AF000284600F02FFD2B2000F066FD304600F068
:100B000029FD204600F026FD2C2001B0BDE8F04074
:100B100000F05ABD2DE9F04381B081462A20984665
:100B200015460E46541E5F1E00F04EFD484600F06E
:100B300011FDA0B200F00EFD2B2000F045FD304667
:100B400000F008FDB8B200F005FD2C2000F03CFDDF
:100B5000464511D2089C03E00136B0B240450BD2A5
:100B6000A945F9D24F4600BF204600F0F3FC0137FB
:100B7000B8B2A842F8D3EFE701B0BDE8F0830000B7
:100B80002DE9F04385B04FF4401001214FF00109E9
:100B900004F042F840F20108C0F23008404601215A
:100BA00004F03AF803AE304608F024FC43F20005A6
:100BB0000020C4F201058DF810004FF4817005F596
:100BC0005047ADF81200202438463146039408F00F
:100BD00019FC039405F554442046314608F012FCF4
:100BE00018200390384631468DF8129008F00AFC20
:100BF000092003902046314608F004FC38460521C0
:100C0000052208F039FC20460521052208F034FCB5
:100C10000C20C0F24400012103F0FEFF01AC20468D
:100C200027F0F0FC40F20310019040F20010C0F2F7
:100C3000011002902846214627F012FD2846012186
:100C400027F0FEFC2846012127F0E4FC08F11500FE
:100C5000012103F0E1FF05B0BDE8F083B0B543F238
:100C60000004C4F20104FFF78BFF04F55445284645
:100C7000082108F0BDFB0A2004F09CF82846082152
:100C800008F0B4FB0A2004F095F82846082108F083
:100C9000AFFB782004F08EF804F550452846082173
:100CA00008F0A6FB112000F08FFC782004F082F8F9
:100CB000362000F089FC2846102108F097FB2046DA
:100CC000002127F0B1FC2046002127F0B7FC00BF2F
:100CD0002046802127F0BEFC0128F9D028461021AB
:100CE00008F086FB3A2000F06FFC2846102108F03F
:100CF0007DFB2046002127F097FC2046052127F0A8
:100D00009DFC00BF2046802127F0A4FC0128F9D0DB
:100D10002846102108F06CFBB22000F055FC284654
:100D2000102108F063FB2046002127F07DFC2046BF
:100D3000052127F083FC00BF2046802127F08AFC94
:100D40000128F9D02846102108F052FB284610212E
:100D500008F04CFB2046002127F066FC20460521C8
:100D600027F06CFC2046802127F074FC0128F9D084
:100D70002846102108F03CFB2846102108F036FBDD
:100D80002046002127F050FC2046002127F056FC89
:100D90002046802127F05EFC0128F9D0284610214A
:100DA00008F026FB2846102108F020FB20460021F1
:100DB00027F03AFC2046332127F040FC20468021D2
:100DC00027F048FC0128F9D02846102108F010FB34
:100DD0002846102108F00AFB2046002127F024FCB9
:100DE0002046332127F02AFC2046802127F032FCC0
:100DF0000128F9D02846102108F0FAFAB72000F0AF
:100E0000E3FB2846102108F0F1FA2046002127F0E4
:100E10000BFC2046352127F011FC00BF2046802125
:100E200027F018FC0128F9D02846102108F0E0FA34
:100E3000BB2000F0C9FB2846102108F0D7FA204655
:100E4000002127F0F1FB2046212127F0F7FB00BF0E
:100E50002046802127F0FEFB0128F9D028461021EA
:100E600008F0C6FAC02000F0AFFB2846102108F0B9
:100E7000BDFA2046002127F0D7FB20462C2127F081
:100E8000DDFB00BF2046802127F0E4FB0128F9D0DC
:100E90002846102108F0ACFAC22000F095FB284645
:100EA000102108F0A3FA2046002127F0BDFB2046C0
:100EB000012127F0C3FB00BF2046802127F0CAFB99
:100EC0000128F9D02846102108F092FAC32000F03A
:100ED0007BFB2846102108F089FA2046002127F0E4
:100EE000A3FB20460B2127F0A9FB00BF2046802151
:100EF00027F0B0FB0128F9D02846102108F078FA35
:100F0000C42000F061FB2846102108F06FFA20464B
:100F1000002127F089FB2046202127F08FFB00BF0E
:100F20002046802127F096FB0128F9D02846102181
:100F300008F05EFAC62000F047FB2846102108F0B2
:100F400055FA2046002127F06FFB20460F2127F09D
:100F500075FB00BF2046802127F07CFB0128F9D0DB
:100F60002846102108F044FAD02000F02DFB284636
:100F7000102108F03BFA2046002127F055FB2046BF
:100F8000A72127F05BFB00BF2046802127F062FBF2
:100F90000128F9D02846102108F02AFA2846102105
:100FA00008F024FA2046002127F03EFB2046A1212C
:100FB00027F044FB2046802127F04CFB0128F9D084
:100FC0002846102108F014FAD02000F0FDFA284637
:100FD000102108F00BFA2046002127F025FB2046BF
:100FE000A42127F02BFB00BF2046802127F032FBF5
:100FF0000128F9D02846102108F0FAF928461021D6
:1010000008F0F4F92046002127F00EFB2046A1212C
:1010100027F014FB2046802127F01CFB0128F9D083
:101020002846102108F0E4F9D62000F0CDFA284631
:10103000102108F0DBF92046002127F0F5FA2046C0
:10104000A12127F0FBFA00BF2046802127F002FBF8
:101050000128F9D02846102108F0CAF9E02000F054
:10106000B3FA2846102108F0C1F92046002127F0E4
:10107000DBFA2046D02127F0E1FA00BF204680218C
:1010800027F0E8FA0128F9D02846102108F0B0F935
:101090002846102108F0AAF92046002127F0C4FABA
:1010A0002046042127F0CAFA2046802127F0D2FAF0
:1010B0000128F9D02846102108F09AF92846102175
:1010C00008F094F92046002127F0AEFA20460821C6
:1010D00027F0B4FA2046802127F0BCFA0128F9D085
:1010E0002846102108F084F92846102108F07EF9DE
:1010F0002046002127F098FA20460A2127F09EFA80
:101100002046802127F0A6FA0128F9D02846102190
:1011100008F06EF92846102108F068F920460021F1
:1011200027F082FA2046092127F088FA20468021FC
:1011300027F090FA0128F9D02846102108F058F934
:101140002846102108F052F92046002127F06CFAB9
:101150002046052127F072FA2046802127F07AFAEE
:101160000128F9D02846102108F042F9284610211C
:1011700008F03CF92046002127F056FA20462D21A0
:1011800027F05CFA2046802127F064FA0128F9D084
:101190002846102108F02CF92846102108F026F9DD
:1011A0002046002127F040FA2046432127F046FA46
:1011B0002046802127F04EFA0128F9D02846102138
:1011C00008F016F92846102108F010F920460021F1
:1011D00027F02AFA2046492127F030FA20468021BC
:1011E00027F038FA0128F9D02846102108F000F934
:1011F0002846102108F0FAF82046002127F014FABA
:101200002046092127F01AFA2046802127F022FAE9
:101210000128F9D02846102108F0EAF828461021C4
:1012200008F0E4F82046002127F0FEF920461621B8
:1012300027F004FA2046802127F00CFA0128F9D083
:101240002846102108F0D4F82846102108F0CEF8DE
:101250002046002127F0E8F92046152127F0EEF975
:101260002046802127F0F6F90128F9D028461021E0
:1012700008F0BEF82846102108F0B8F820460021F2
:1012800027F0D2F92046262127F0D8F920468021E0
:1012900027F0E0F90128F9D02846102108F0A8F835
:1012A0002846102108F0A2F82046002127F0BCF9BA
:1012B00020462B2127F0C2F92046802127F0CAF9C9
:1012C0000128F9D02846102108F092F8E12000F01A
:1012D0007BF92846102108F089F82046002127F0E4
:1012E000A3F92046D02127F0A9F900BF204680218C
:1012F00027F0B0F90128F9D02846102108F078F835
:101300002846102108F072F82046002127F08CF9B9
:101310002046032127F092F92046802127F09AF9F0
:101320000128F9D02846102108F062F8284610213B
:1013300008F05CF82046002127F076F920460921C4
:1013400027F07CF92046802127F084F90128F9D084
:101350002846102108F04CF82846102108F046F8DD
:101360002046002127F060F920460A2127F066F97F
:101370002046802127F06EF90128F9D02846102157
:1013800008F036F82846102108F030F820460021F1
:1013900027F04AF920460A2127F050F920468021FB
:1013A00027F058F90128F9D02846102108F020F834
:1013B0002846102108F01AF82046002127F034F9B9
:1013C0002046062127F03AF92046802127F042F9ED
:1013D0000128F9D02846102108F00AF828461021E3
:1013E00008F004F82046002127F01EF920462E219F
:1013F00027F024F92046802127F02CF90128F9D084
:101400002846102107F0F4FF2846102107F0EEFFD0
:101410002046002127F008F92046442127F00EF944
:101420002046802127F016F90128F9D028461021FE
:1014300007F0DEFF2846102107F0D8FF20460021E4
:1014400027F0F2F82046402127F0F8F820468021C6
:1014500027F000F90128F9D02846102107F0C8FF2D
:101460002846102107F0C2FF2046002127F0DCF8B3
:1014700020463A2127F0E2F82046802127F0EAF8BA
:101480000128F9D02846102107F0B2FF2846102184
:1014900007F0ACFF2046002127F0C6F820461521B2
:1014A00027F0CCF82046802127F0D4F80128F9D085
:1014B0002846102107F09CFF2846102107F096FFD0
:1014C0002046002127F0B0F82046152127F0B6F875
:1014D0002046802127F0BEF80128F9D028461021A7
:1014E00007F086FF2846102107F080FF20460021E4
:1014F00027F09AF82046262127F0A0F820468021E0
:1015000027F0A8F80128F9D02846102107F070FF2D
:101510002846102107F06AFF2046002127F084F8B2
:1015200020462A2127F08AF82046802127F092F8C9
:101530000128F9D02846102107F05AFF212000F099
:1015400043F8292000F040F80A20BDE8B04003F03D
:1015500031BC0000F0B581B043F20004C4F20104D4
:1015600004F550450646070A2846102107F03EFFBD
:101570002046002127F058F82046394627F05EF82B
:101580002046802127F066F80128F9D0284610214E
:1015900007F02EFF2846102107F028FF20460021E3
:1015A00027F042F8F1B2204627F048F82046802183
:1015B00027F050F80128F9D02846102101B0BDE8E5
:1015C000F04007F015BF0000F0B581B043F2000510
:1015D000C4F2010505F5544407462046012107F0F1
:1015E00005FF05F550463046102107F0FFFE28465E
:1015F000002127F019F82846394627F01FF800BFC8
:101600002846802127F026F80128F9D030461021FD
:1016100007F0EEFE2046012101B0BDE8F04007F0E2
:10162000E7BE00000DF0B8FB23F07EF90A202CF095
:10163000EDF8F9E7FEE70000704700000000000049
:10164000EFF30980BFF36F8F154B1A681EF0100F70
:1016500008BF20ED108A20E9F04F10602DE9090045
:101660004FF0100080F31188BFF34F8FBFF36F8FDF
:101670002CF0F4F94FF0000080F31188BDE8090068
:1016800019680868B0E8F04F1EF0100F08BFB0EC02
:10169000108A80F30988BFF36F8F704700BF00BFC7
:1016A00044250120000000000000000000000000B0
:1016B000074B19680868B0E8F04F80F30988BFF35A
:1016C0006F8F4FF0000080F31188704700BF00BF9C
:1016D0004425012080B54FF0100080F31188BFF33E
:1016E0006F8FBFF34F8F2CF0EFFD30B14EF60450EB
:1016F000CEF200004FF080510160002080F311888D
:1017000080BD00004EF68850CEF20000026843F61D
:10171000000142F47002C4F2020102600A6842F061
:1017200001020A600A689207FCD58A6822F0030267
:101730008A6000BF8A6812F00C0FFBD10A684FF66E
:10174000FF73CFF6F2631A4043F202030A600022ED
:10175000C0F203038A604B60C1F8A0204FF41F025F
:10176000CA604FF0006140F8801C7047B0B500249B
:10177000C4F201042046012101252BF0D7FA0028EC
:1017800008BFB0BD204601212BF0CCFA42F638014B
:10179000C2F2010101200D70BDE8B04023F02EB867
:1017A000FEE7000070B540F60814C2F200042046BF
:1017B000442100F0DFFD43F28D70C0F600001E21D1
:1017C000002223F08BF840F61416C2F2000640F611
:1017D000A4253060C2F2000501202870204600F0E8
:1017E000A3FD0146306811B123F098F901E023F020
:1017F00085F90020287070BD70B50346B1F900006E
:10180000B2F90040B1F902C0B2F90250B1F904E0F6
:10181000B2F90460A042B1F90610B2F90620C8BFBF
:101820000446AC451C80C8BF6546B6455D80B8BF60
:10183000764691429E80B8BF0A460020B4424FF0DF
:101840000001D8BF01219542D8BF01200840DA80AD
:1018500070BD00002DE9F04381B00C46B0F9007076
:10186000B1F900108F423DDBB0F90260B4F902100B
:101870008E4237DBB0F90490B4F90410894531DCAD
:10188000B0F90680B4F9060080452BDC15466AB332
:10189000694620462A46ADF80070ADF8026000F0B7
:1018A00097F8F8B1694620462A46ADF80090ADF8A1
:1018B000026000F08DF8A8B1694620462A46ADF8CE
:1018C0000070ADF8028000F083F858B169462046F8
:1018D0002A46ADF80090ADF8028000F079F801B02A
:1018E000BDE8F083002001B0BDE8F083012001B025
:1018F000BDE8F083B0F90020B1F904309A4213DC5E
:10190000B0F90420B1F900309A420DDBB0F90220A1
:10191000B1F906309A4207DCB0F90600B1F90210BD
:101920008842A4BF01207047002070472DE9F04392
:1019300081B00C46B0F90460B1F900108E4211DBA1
:10194000B0F90670B4F902108F420BDBB0F90080D9
:10195000B4F90410884505DCB0F90290B4F906002A
:10196000814503DD012001B0BDE8F0831546EAB1F1
:10197000694620462A46ADF80080ADF8029000F096
:1019800027F898B9694620462A46ADF80060ADF8B8
:10199000029000F01DF848B9694620462A46ADF885
:1019A0000080ADF8027000F013F818B1002001B00B
:1019B000BDE8F083694620462A46ADF80060ADF8E0
:1019C000027000F005F880F0010001B0BDE8F0837E
:1019D0002DE9F041B1F90030B0F90040A3420DDB30
:1019E000B0F904E0734509DCB1F90210B0F902C0A6
:1019F000614503DBB0F90600814202DD0020BDE84D
:101A0000F081012A36DBAEEB04050135AEB205EB01
:101A1000D6352EB2A0EB0C050135AFB205EBD735AC
:101A20002FB24FEA66087D10B8EB670FB8BF75108C
:101A30009542A8BF15462A1916B205EB0C02B3420F
:101A400012B2D8BF914218DD401BB34200B22CDC69
:101A500081422ADB721912B2121B02EBD2725710AA
:101A600004EB6206294400EB62009B1B081A07FB8B
:101A700007F110E00120BDE8F081701900B2001BF1
:101A800000EBD070421004EB60070CEB6000DB1B36
:101A9000081A02FB02F113FB03F210FB00220020E4
:101AA0008A4298BF0120BDE8F081AEEB050424B264
:101AB000A342A8BF814220DAA3424FF001001ADB03
:101AC0009142C8BFBDE8F081601B02B2AEEB0202DA
:101AD00002EBD27200EB62005710181A0CEB620294
:101AE000891A10FB00F007FB07F211FB010100202F
:101AF000914298BF0120BDE8F081621B17B2AEEBA6
:101B0000070707EBD77702EB67027E109A1A294482
:101B100000EB6700081A06FB06F112FB02F2BCE7B5
:101B200070B5B1F90030B2F90040B1F902C0B2F9B4
:101B30000250B1F904E0B2F90460A342B1F9061011
:101B4000B2F90620B8BF1C46AC450480B8BF654654
:101B5000B6454580C8BF764686809142C8BF0A46D2
:101B6000C28070BD80B5002808BF0DF00BFA0028B8
:101B700014BF4068002080BD2DE9F04F8BB00546B2
:101B800022F02CFE40F63C3A03900020C2F2000AFC
:101B9000089035B1E868CAF80000284622F0AEFF88
:101BA00003E00DF0EFF9CAF80000DAF80000006970
:101BB0001FF012F8DAF800004069002818BF1FF083
:101BC0000BF8DAF80000C0691FF006F8DAF8000038
:101BD000006A1FF001F8DAF800000169002979D0E5
:101BE000B0F8501100295DD000250DF124084FF008
:101BF000010906E0DAF800000135B0F850118D4215
:101C000050D2284490F830010028F3D1DAF80000CF
:101C1000B0F850110029EDD0002406E0DAF80000F9
:101C20000134B0F850118C42E4D2011991F830110E
:101C30000029F3D1AC42F1D000F1300101EBC50035
:101C400001EBC401FFF756FE0028E7D0DAF80000E8
:101C5000303000EBC50100EBC4024046FFF760FFE7
:101C6000404609F09FFEDAF80010064601EBC50079
:101C7000303009F097FEDAF80010074601EBC40097
:101C8000303009F08FFE38448642C7D2DAF80000BF
:101C9000DDE9092300EBC50120440A634B6380F8AA
:101CA0003091BBE7DAF8000042F2DC7BB0F850116B
:101CB000C2F2010B00220029CBF8002000F04F8176
:101CC00001290DDB421892F82F214C1E002A2146D3
:101CD000F6D106E00021A0F850110BB0BDE8F08F5E
:101CE00000240068416B002918BF8847DAF800001B
:101CF0000168C9688A6922F001028A610168C968BD
:101D00008A6922F002028A61B0F8501190F8282006
:101D1000002942F0040180F8281000F01A81002701
:101D200002941CE0816962F3410181613046C6F88A
:101D3000089024F083FDDAF8000000EBC700303093
:101D400009F030FEDBF800100844CBF80000DAF8A8
:101D500000000137B0F850118F4280F0FA80C119AD
:101D600091F830110029F2D1A74205D10168C96864
:101D70008A6942F001028A61016800EBC708C968FC
:101D800008F130098A6922F002028A610168CA6892
:101D9000CE6B92683260097C890720D00DF00CF977
:101DA000DAF80010A0F1010808460DF05DF90138DD
:101DB00005B20FFA88F309A8002100220095054614
:101DC00009F02AFEDAF8000075600168D1E9030124
:101DD00082698907A6D542F00201A946A5E738F82D
:101DE00032BFCDF81C90414631F8022F4546CDE96F
:101DF0000521B9F8001035F9044F04910DF034F9BC
:101E0000844202DAB5F8009005E0DAF800000DF03F
:101E10002BF9A0F10109DDE90410A4EB0B02401A33
:101E2000DAF800100130096800B2CB680132DB68D3
:101E30008969B3FBF0F00FFA82FB5845B8BF8346BF
:101E400001B300205C460990ADF82800651EDAF861
:101E50000000ADF82A50006809A982699047BDF9D1
:101E60002A00BDF82610411A013109B28B4502DA69
:101E70002CB2002CEADC21B20129ACBF00F1010B2D
:101E80004FF0000BB8F900000FFA89F50BEB0001D9
:101E90004A1EAA4280B20CDD4FF0000830E000BFBD
:101EA000304624F0CBFC0BFA84F14A1EAA422046AD
:101EB00025DC079B0C461B8811B2ADF82430069B2D
:101EC0008D421B88ADF82600ADF8283009ABDAF852
:101ED0000000ADF82A207360B36000681FFA89F132
:101EE000C06882683260B8BFADF82A90BDF82A8019
:101EF0004145D5D1816941F002018161D0E7204699
:101F0000029C079A1FFA89F10DF1240B41451BD061
:101F10001188ADF8241006990988ADF82600DAF882
:101F20000000ADF82810ADF82A90C6F804B0C6F845
:101F300008B00068C06881683160816941F00201C1
:101F40008161304624F07AFC42F2DC7BC2F2010B64
:101F5000F1E690F8281001F0FB0180F82810DAF87B
:101F60000000B0F85011E9B130304FF4807118F032
:101F7000EDFEDAF80000202100F5987018F0E6FE7A
:101F8000DAF800000021A0F85011039822F012FCAA
:101F90000890DAF800000068436A1BB10899DBF882
:101FA0000020984718F07AFC00F030F800F004F8B0
:101FB0000BB0BDE8F08F0000B0B540F61815002456
:101FC000C2F200052859002818BF18F04FFD281943
:101FD0001C2118F0BBFE1C34702C08BFB0BDF1E70B
:101FE00040F64C41C2F20001096804E00A7E42F06A
:101FF00001020A764969002908BF70474A6882428F
:10200000F4D00A688242F5D1F0E700007047000082
:1020100040F61420C2F20000042100F0ABB9000029
:1020200040F62420C2F20000202100F0A3B90000F5
:102030002DE9F04F85B00E9E1D46002B834608BF4C
:10204000B6F5807F6DD0DDF83C800023019301A8B8
:10205000ADF80810CDF80A30ADF80E20ADF810102C
:10206000ADF81220294632464346071D00F1080903
:1020700000F10C0A1EF006FE384629463246434659
:102080001EF000FE48462946324643461EF0FAFD41
:1020900050462946324643461EF0F4FDBDF9042061
:1020A000BDF90830BDF90C60BDF910409A421F46D9
:1020B000BDF90610BDF90A00B8BF1746A64225466D
:1020C000B8BF3546AF42B8BF3D46AF1E9A42ABF8E7
:1020D0000070C8BF1346A642C8BF3446A342C8BF5B
:1020E0001C46A21CBDF90E30BDF91260ABF80420ED
:1020F00081420246B8BF0A46B3423746B8BF1F46C0
:10210000BA42B8BF1746BA1E8142ABF80220C8BF18
:102110000846B342C8BF1E46B042C8BF0646B01C00
:1021200006E00020CBF80000481EABF80400501E6B
:10213000ABF8060005B0BDE8F08F0000F0B581B047
:1021400016460C46074622F049FBA2B240F6302460
:10215000C2F20004054620463946334615F08CFD90
:1021600068B1E0690021A16218B9284622F022FB7B
:10217000E061E069002804BF0120E06107E020463B
:102180002C2118F0E3FD4FF00040A062002420460F
:1021900001B0F0BD10B540F65C24C2F20004204648
:1021A000142100F0E7F8204600F0ECF8B0B114215B
:1021B000044618F0CBFD47F2B550C0F6010047F2D7
:1021C000A56147F68D0247F27D53C0F60101C0F6C6
:1021D0000102C0F601030FC410BD00BFFEE70000FE
:1021E000F0B585B004460D4610B134B905B0F0BD68
:1021F0000CF0C8FE0446002CF8D020460CF04EFF30
:102200000028F3D094F828004007EFD40020D5B37D
:10221000029020460CF0D0FE0138ADF80C002046AC
:102220000CF022FF0138ADF80E00684602AA2946DC
:10223000FFF7E2FA0028D9D02068017C890726D46C
:1022400082690AB169469047B4F8500190B104F12F
:10225000300500276E4600BF304629460022FFF7B2
:10226000F9FA0028C2D1B4F850010137874205F1CC
:102270000805F1D31F2818D8DDE9001204EBC000CF
:102280000163426318E0A4F8500105B0F0BD029864
:10229000039920630120A4F850016068616300285D
:1022A000A4D022F03BFC05B0F0BD0020A4F8500102
:1022B000DDE9020120636163B4F850116068013107
:1022C0000028A4F8501118BF22F028FC05B0F0BD7A
:1022D000F0B581B00028044614BF656800250DB331
:1022E000002707E0002D656014BF6F50A76018F04D
:1022F000BDFBBDB1D4E9001328460A1DAD58834289
:10230000F0D0A6684358864206D0002B18BF9D50D7
:10231000002D18BF6B50EAE7002BA36014BF9F503D
:102320006760E4E701B0F0BD002814BF40680020FA
:1023300070470000002814BF41680021002904BF35
:10234000002070470068021D002000BF895801303E
:102350000029FBD1704700000068084440687047BE
:102360000068085870470000002814BF80680020EB
:10237000704700000331002221F00301C0E9001280
:102380008260704710B504460068083018F062FAA1
:10239000002808BF10BD2168002242506268014435
:1023A0004A60616800291CBF22688850A16860608B
:1023B000002908BFA06010BD10B5044600680830B1
:1023C00018F048FA002808BF10BD21680023421801
:1023D0005360A2684250A16811B12268114448605C
:1023E0006168A060002908BF606010BD28B1416825
:1023F00009B9806808B100207047012070470000CB
:1024000080B5002808BF80BD42688A4213D0D0F84A
:1024100000E0826851F80E308A4217D00EF1040CA9
:1024200051F80C00002B18BF43F80C00002818BF0F
:1024300040F80E3080BD02681144496800294160AF
:1024400007BF002181600020885080BD0021002B43
:10245000836018BF0EEB0300416080BD10B50446D9
:1024600006E000BF20680068002808BF10BD20609B
:1024700020688268002AF5D021469047F2E70000E4
:102480008068002814BFC08A002000B27047000096
:10249000806800280EBF0020807E80097047000001
:1024A000F0B581B01446A8B1612206460F461BF074
:1024B00069FE88B10546006880B13046394662221F
:1024C0001BF060FE01060BD02B68A1B2C2B22846F9
:1024D000984706E0204604E0204602E0204600E05F
:1024E0002046C0EA040001B0F0BD00002DE9F04F25
:1024F00091B00446408CDDF868B040F00400608480
:1025000022841646BBF8082020461F468A461BF048
:1025100039FE2784BBF808200546204651461BF0AB
:1025200031FE618C814621F004004D45608405D167
:1025300004BF89EA05005FEA00407ED02684BBF82C
:102540000820204651461BF01DFE8046204651467D
:10255000278406F0EBFE0068BBF80810424620F026
:1025600037FABBF808000B2828D147F6FF76B045AC
:1025700018BFB14522D120461BF07EFF81B200EB8F
:10258000D13000B2451020461BF01EF881B200EB9E
:10259000D13000B2B0454FEA600005D1691C00F1AE
:1025A00001084145B8BF884647F6FF71894505D106
:1025B000691C00F101094945B8BF894640F67820F9
:1025C000C2F20000FFF7DEFED0B3C0E90389046069
:1025D0000546BBF808006C46A8802046C5F808A050
:1025E00008F038FC4CF65550C0F6020001904DF250
:1025F0000100C0F6020002904CF64170C0F60200E5
:1026000003900020CDE90800FF200A90BBF80000ED
:10261000BBF802100B904842DBF80C100C909DF8B0
:1026200042000791DBF8101000F0FE008DF8420028
:1026300020460095069108F08DFC11B0BDE8F08FA2
:10264000FEE7000040F67820C2F200001421FFF7F8
:1026500091BE00002DE9F04F81B00446408C10F48B
:10266000FC7F00F01A816FEA01096FEA020B4FF05C
:10267000000AE84600250AE00120002800F0108149
:10268000608C0135C0F3C500854280F00B81E068A5
:1026900000EBC50149688A01F2D489B211EA090246
:1026A00001EA0B01B1FA81F14FEA511118BF012281
:1026B0004A40E1D150F835601021304642461FF0C3
:1026C00055FF88BB3046112142461FF04FFF58BBD3
:1026D0003046122142461FF049FF28BB30461321E5
:1026E00042461FF043FFF8B93046152142461FF01D
:1026F0003DFFC8B93046142142461FF037FF98B954
:1027000030460A2142461FF031FF68B930466A213F
:1027100042461FF02BFF38B930466B2142461FF06E
:1027200025FF00285AD000BF0127002F60D1304676
:10273000682142461FF01AFF002849D1304669211E
:1027400042461FF013FF002842D130466D21424619
:102750001FF00CFFE0BB30466C2142461FF006FF25
:10276000B0BB3046372142461FF000FF80BB3046E9
:10277000382142461FF0FAFE50BB30463521424612
:102780001FF0F4FE20BB3046402142461FF0EEFE13
:10279000F0B93046452142461FF0E8FEC0B9304648
:1027A000412142461FF0E2FE90B9304642214246A6
:1027B0001FF0DCFE60B93046432142461FF0D6FED2
:1027C00030B93046492142461FF0D0FE00285BD088
:1027D0004FF0020A002F3FF44FAF0CE030460121CA
:1027E000424601271FF0C2FE50B100BF002F9ED00D
:1027F000002F3FF441AF002000287FF441AF4FE0AD
:102800003046042142461FF0B1FE00287FF48CAF11
:102810003046022142461FF0A9FE00287FF484AF13
:102820003046032142461FF0A1FE00287FF47CAF12
:102830003046052142461FF099FE00287FF474AF10
:102840003046062142461FF091FE00287FF46CAF0F
:102850003046322142461FF089FE00287FF464AFE3
:1028600030466D2142461FF081FE00287FF45CAFA8
:1028700030466C2142461FF079FE0746002818BFFB
:102880000127002FB4D152E7BAF1000F08BF4FF073
:10289000010A002F3FF4F0AEADE74FF0000A01E06F
:1028A0004FF0030A5FFA8AF001B0BDE8F08F000034
:1028B00040F63C30C2F200000068704770470000EC
:1028C000C0F30410072828BF072070474FF6FF7198
:1028D000884204BF1F207047002804BF00207047B3
:1028E0006F2805D84EF6DE11C0F60201085C70476D
:1028F00040F68421C2F20001096851B140F68822F5
:10290000C2F200027038126880B2824284BF085C52
:10291000704700207047000080B540F69420C2F256
:1029200000001821FFF726FD42F23850C2F20100E4
:102930000121017080BD00002DE9F041F8B116467B
:1029400004460D46FDF756FE40F20008C2F20008AC
:10295000D8F800200746204629469047D8F800209E
:102960000546204431469047391A8D4288BFBDE85C
:10297000F0812044425D625501358D42FAD9BDE8AF
:10298000F08100002DE9F04140F20808C2F2000891
:102990001446D8F800200F4619461D4606469047B3
:1029A000386040B12868D8F80020304400219047B2
:1029B0002060BDE8F08100202060BDE8F0810000CB
:1029C0002DE9F04F91B01A9E0546002E1C461CBF03
:1029D0000020308035B300294FF0000000F0648102
:1029E0002B78002B00F060811B9810F0060F1DD093
:1029F0000020012142F2014201E000BF01302B5CC6
:102A00000D2BFBD801FA03F71742F7D0002B18BFA4
:102A10000130002E00F048814FF6FF71318011B077
:102A2000BDE8F08F002011B0BDE8F08F01920022C8
:102A300000F001004FF0000A00260E920D90029562
:102A4000009100BF0E9F0A96E85D0E46002800F038
:102A50002E8120B201280690C0F2298140F20800A0
:102A6000C2F2000005EB07090021026810910F91E6
:102A7000484610A99047834699F80000109900280D
:102A80004FF000000F910894049700F0C180314688
:102A90000A9E0C904FF0FF32002000240023099082
:102AA00040F20800C2F20000079202680D46484654
:102AB0000FA905940B9390470D99804621B9099869
:102AC00001300390284647E0099F0B9E584600BFFF
:102AD000A0F12301B1FA81F15FFA8AF300224909DA
:102AE000032B38BF01220A404FEAC30351464FF07F
:102AF000010418BF24FA03F1CBB2012B454603D1E0
:102B0000202808BF022104E024EA0A031A40012A0F
:102B100019D1109E8A4619F806000F9900281091C5
:102B200000F09F8040F20800C2F2000002684846B0
:102B30000FA9904780460D98013700282846C7D135
:102B4000781C039006E07A1CA8468A4683460392C6
:102B500009970B9600980A9E59464246054613F07F
:102B60007FFE059C01B2044400290199C8BF0C44B2
:102B700020B2069A411A91420B99D8BF4FF0FF310B
:102B8000079B5A1C08BF0B46039FBBF10A0F27D0B7
:102B9000BBF10D0F18BFBBF1200F21D0ABF59C414D
:102BA00045F2A61291421BD3012100BF072905D08F
:102BB00041A2525C01319345F8D111E0591C0C99A6
:102BC0001A4608BF0146DDE90F030C9119F80310FE
:102BD000C34600292946109009977FF461AF20E091
:102BE0001A460B9B63EA020100290C9908BF0146B3
:102BF000099F0C912946501C15D1089C2FB1BBF19F
:102C00000D0F08BFB8F10A0F00D1109B0C9F14E004
:102C100031460A9E0C904FF0FF32002300274FF000
:102C20000008501CE9D004980C9F00284FF00000C9
:102C30001CBF07460246089C1346029D3E44E3B172
:102C40000E982A7818440A2A0E9016D00D2A14D00D
:102C50002A5C0D2A0FD00A2AA4EB07047FF4F2AEF7
:102C600009E0334600990A9E079A0137AB46A84609
:102C7000501CD8D1C1E701300E901A9C0E9878B93B
:102C800040F20800C2F2000002680F460EA9284672
:102C900090472CB101463846002213F0E1FD06466C
:102CA000002C18BF26800E9811B0BDE8F08F1A9C3A
:102CB00031460A9EE2E700BF202C2E3B3A2D5F00F2
:102CC0002DE9F04381B058B316464AB30546304665
:102CD0008846FDF78FFC18B304462846FDF78AFCAA
:102CE000074640F20000C2F2000002682846414652
:102CF00007EB040990470119894507D32A1900BF3A
:102D0000EB5DD355013FE3198B42F9D22844711E84
:102D1000013800BF11F8012F013C00F8012FF9D153
:102D200001B0BDE8F083000023290BD10278022A0C
:102D300008D8D3004FF0010C2CFA03F32CEA02025E
:102D4000037000E000220378012B06D120291CBF6C
:102D500001207047022101220170104670470000D7
:102D60002DE9F04182B004460B46CDE90011002068
:102D7000002122464FF0000822F09AFB451C07462E
:102D8000284617F067FD58B100F80780019B2946D7
:102D90002246064622F08CFB304602B0BDE8F081A8
:102DA000FEE700002DE9F04702B3DDF820909A46D7
:102DB00014460F46804606E064F001003044441C8F
:102DC00005EB0A0774B1660806FB0A7540462946FA
:102DD000C8470128F0DAB0F1FF3F3446F2DD28465B
:102DE000BDE8F08700252846BDE8F0870020BDE853
:102DF000F08700002DE9F04F83B0129D1E468146FA
:102E0000DDE910700E9BDDE90C4B8A4615F00201DE
:102E100090460091CDE901203BD148B1E80709D0A7
:102E200015F00C0018BF012011991843081A00E092
:102E300000200290BB4517D2BBF11F0F14D86FEAD8
:102E40000B013944CBF11F02914238BF0A4602F10F
:102E5000010804EB0B0041463022FDF761FC0C9C9D
:102E60000E9BC344DDF80480E80712D00298834526
:102E70000FD2BBF11F0F0CD8029A30210BF10100C9
:102E8000904204F80B1003D2BBF11F0F8346F5D319
:102E90008346E80638D50F98690507D4BBF1000FC3
:102EA00004D0BB4512D002998B450FD0102819D100
:102EB00015F0200104D1BBF1200F01D2782017E0DA
:102EC00081B1BBF1200F0DD2582011E0BBF10101FF
:102ED0000A4618BFABF10202102818BF0A469346F3
:102EE0001028E5D0022807D1BBF11F0F04D86220BB
:102EF00004F80B000BF1010BBBF11F0F9EBF30203C
:102F000004F80B000BF1010BBBF11F0F0DD80BB137
:102F10002D2006E0680703D4280706D5202000E00E
:102F20002B2004F80B000BF1010BA80744460FD12E
:102F30000298444683450BD202984246A0EB0B0709
:102F4000202051463346541CC847013F2246F7D142
:102F5000BBF1000F10D00C98A0F1010818F80B007D
:102F6000514622463346ABF10105671CC847002D88
:102F70003C46AB46F2D100E02746009898B1019953
:102F8000DDF80880781A40450BD24D42202051468A
:102F90003A4633467C1CC847281940452746F5D396
:102FA00002E03C4600E03C46204603B0BDE8F08F1E
:102FB0009A4238BF8854704770470000704700003D
:102FC0002DE9F04F97B00D46209942F6B9781C468E
:102FD0001746C0F600084FF0000A0E91002D18BFEA
:102FE00080460026A05D0AEB060B002800F0C18396
:102FF000252805D029465A463B46C0470136F1E709
:10300000A0190B95451C4FF000090D9704E000BF77
:1030100001350020002821D12878A0F120011029B5
:103020004FF00100F6D8DFE801F00D0C0C090C0C94
:103030000C0C0C0C0C100C130C0C160049F01009A5
:10304000E6E7E7E749F00809E2E749F00409DFE7C6
:1030500049F00209DCE749F00109D9E72878CDF801
:103060003080A0F13001092912D8681E4FF0000805
:1030700010F8011F08EB8802437801EB4201A3F12D
:1030800030020A2AA1F13008F2D3451C13E000BF38
:103090002A280ED10E99013551F8040B00288046DC
:1030A0000E9148BFC0F10008002848BF49F002094E
:1030B00001E04FF0000828782E281BD1284610F890
:1030C000011F49F48069A1F13002092A23D8681E42
:1030D000002700BF827807EB8701C37802EB41012C
:1030E000A1F13007A3F130010A2900F10100F1D369
:1030F000851C00E00027287868384FEA700009280E
:1031000021D8DFE800F0131D8120202005202005B4
:1031100049F4807916E02A2940F089800E99023519
:1031200051F8040B20EAE0770E91E4E7284610F806
:10313000011F682940F07E8049F0C009023502E095
:1031400049F4007901352878A0F12501532900F2CE
:10315000C3801024DFE811F0BB00C000C000C00035
:10316000C000C000C000C000C000C000C000C0005F
:10317000C000C000C000C000C000C000C000C0004F
:10318000C000C000C000C000C000C000C000C0003F
:10319000C000C000C000C000C000C000C000C0002F
:1031A000C000C000C000C000C000C000C00061007E
:1031B000C000C000C000C000C000C000C000CE0001
:1031C000C000C000C000C000C000C000C000C000FF
:1031D000C000CC009A015400C000C000C000C00074
:1031E0005400C000C000C000C000C00076006100F4
:1031F000C000C0007800C0005400C000C000CE0075
:1032000029F010090A2475E0284610F8011F6C29DE
:1032100014D149F44079023595E7284610F8011F8A
:1032200049F48879562908BF0546102462E0002732
:10323000054660E749F08009054684E749F480794E
:10324000054680E7082455E00E98002650F804ABA8
:103250000E909AF80000002850460FD03846002FF4
:1032600008BF4FF0FF304142504600BF10F8013F09
:10327000013146F100020BB1002AF7D0A0EB0A00A1
:1032800009F48066B842394638BF0146002E08BFAF
:10329000014619F00200CDE9095040F01282414583
:1032A00080F00E820797DDE90B590D9F08F10100B0
:1032B000A8EB0104089000BF5A46202029463B464F
:1032C0000BF1010BC847013CF6D1079FFAE10995C4
:1032D0000BF1010A252002E00BF1010A09950B9D73
:1032E0000D9FDDF8308029465A463B46C047E3E152
:1032F000022400BF287840F00801582908BF49F08F
:103300002009642803D0692818BF29F00C095FEA56
:10331000495148BF29F001095628099517D0692855
:1033200001D064282DD15FEA89503ED45FEAC950AC
:1033300050D45FEA496000F1C780DDF838E05FEA09
:103340000960DEF800C048BF0FFA8CFCC0E00E999F
:103350000B9D51F8040B0D9F0E914168DDF83080F4
:103360000C6805EB0A010F94A7EB0A0203683144CD
:10337000921B40460094FFF723FE504400EB060AE0
:103380009AE15FEA895038D45FEAC95000F1AD8014
:103390005FEA496000F13081DDF838C05FEA09601A
:1033A000DCF8006048BFB6B22AE10E98073020F082
:1033B00007000246436852F8080B50EA030108BFB1
:1033C00029F010090E92089371BB19F480612BD07B
:1033D000002255E0DDF838E05EF804CBBCF1000FC8
:1033E00008BF29F01009BCF1000F40F08F8019F4DC
:1033F000806000F08B800026F0E00E98073020F00F
:1034000007000146456851F8086B56EA050008BFF9
:1034100029F0100900280E9140F0998019F480607D
:1034200000F09580002211E180EAE370B0EBE375D3
:1034300009F0200083EAE37180F0610061EBE3763C
:10344000F6304FF0000A0A90284631462246002303
:10345000FCF777FF00FB14520A9B0A2A38BF30237F
:103460002D1B76F1000613440AF101020FAE06F897
:103470000A3005D3BAF11F0F924605460E46E3D334
:1034800008980FA9C00FCDE9001205E119F0020458
:10349000099540F0AB80DDF838A0B8F1020FC0F01C
:1034A00041810BAFE0CF0A9408F10109C8F1000493
:1034B0005A46202029463B460BF1010BB047013408
:1034C000601CF5D10A9C30E1DDF838E09EF800C0C0
:1034D000BCF1000F08BF29F01009BCF1000F5CD14E
:1034E00019F4806059D0002676E0DDF838C05CF829
:1034F000046B002E08BF29F01009002E40F08A80CE
:1035000019F4806000F0868000229DE009F020011F
:1035100081F06101604601F1F6050023BCF1000F66
:1035200048BFCCF1000000BFB0FBF4F12A4601FB1C
:1035300014060A2E38BF302232445E1CA0420FA867
:10354000C2544BD31F2B33460846EDD346E009F057
:10355000200080F06100F6304FF0000A0A9000BFB2
:103560003046294622460023FCF7EBFE00FB14629E
:103570000A9B0A2A38BF3023361B75F10006134414
:103580000AF101020FAE06F80A305FD3BAF11F0F3D
:10359000924606460D46E3D358E009F0200181F03B
:1035A0006101604601F1F6050022BCF1000F48BF41
:1035B000CCF10000B0FBF4F12B4601FB14060A2EFF
:1035C00038BF30233344561CA0420FA8835403D382
:1035D0001F2A32460846EDD30EF1040E0FA9CDF88E
:1035E00038E04FEADC70CDE9001655E00B9DDDF8C0
:1035F00038A04FF0010998E0DDF838C09CF8006071
:10360000002E08BF29F0100926BB19F4806021D0D4
:10361000002139E009F0200080F0610000F1F6059A
:10362000002300BFB6FBF4F0294600FB14620A2A0F
:1036300038BF302111445A1CA6420FAEF15403D3B7
:103640001F2B13460646EDD3CDF838C00FA8CDE9A1
:10365000000220E009F0200080F0610000F1F60592
:10366000002300BFB6FBF4F02A4600FB14610A29D0
:1036700038BF30220A44591CA6420FAEF25403D37D
:103680001F2B0B460646EDD30CF1040C0FA8CDF80A
:1036900038C0CDE90001002002A981E89101DDF8E0
:1036A00030800B9D0D9F404629465A463B46CDF83B
:1036B0001890FFF79FFB82460998441CFFF791BCC6
:1036C000013108919AF80000A8B10AF101090DE052
:1036D0003C460B99DDE90C73C0B25A460BF1010A66
:1036E000B84719F8010BD346274628B1002EEFD072
:1036F0000FB17C1EEDE7DA460A9898B308980B9D47
:103700000D9F404532D2A8EB0004DDF8308000BFA9
:103710005246202029463B460AF1010AC047013C97
:10372000F6D1C9E70B9D4FF002091AF8040BDDE949
:103730000C7329465A46CDF838A00BF1010AB84758
:103740008CB1C1450FD2A8EB0904DDE90C8700BF9D
:103750005246202029463B460AF1010AC047013C57
:10376000F6D1A9E70B9DDDE90C87A5E7DDF83080F0
:10377000A2E75A46002029463B46BB4528BF7A1E91
:10378000C047584617B0BDE8F08F00002DE9F04F54
:1037900081B040F67048C2F20008D8F8000021F06D
:1037A00009F840F6AC29C2F2000999F80010044665
:1037B00081F0010089F8000040F60810C2F2000014
:1037C000FEF7B2FD002800F0AD8040F6A42740F6D9
:1037D000081B0646C2F200074FF0000AC2F2000BB7
:1037E00008E000BF58463146FEF7B6FD0646002801
:1037F00000F0988096F8420099F80010C0F380021B
:103800008A4287F800A000F0858000F0FB0242EABF
:103810008101020786F842101AD4316B002917DCA7
:10382000091915D4C00709D1716939B130468847E3
:10383000316AB26A014410443162B062B16809B1C0
:103840003046884796F8420040F0080086F842006B
:10385000306B001930635DD4F16A8842C8BF3163B0
:10386000F16930468847726A904205D07268014615
:1038700070620AB130689047D6E90B01814249DB9A
:1038800096F8421011F0020209D1B6F8403033B177
:103890004FF6FF75AB421CBF013BA6F84030B6F8AF
:1038A000403013B9B36BA3B19AB9D6E90E356D4266
:1038B00035637BB312B9726B5242326381F00201FD
:1038C00086F84210B16A326A3162C6E90A23B063EF
:1038D00020E058463146FEF793FD012038705846E7
:1038E000FEF722FD014640F61410C2F20000006807
:1038F00011B121F013F901E021F000F9F16809B1EB
:1039000030468847316909B130468847304617F05C
:10391000ADF800BF387801287FF464AF5846FEF751
:1039200003FD63E720F05AFFC8F8000001B0BDE8CE
:10393000F08F0000B0B5044640680D4610B129462E
:10394000FFF7F8FF2268002A08BFB0BD20462946CD
:10395000BDE8B0401047000089B207F027BF000063
:1039600089B207F023BF000089B207F08DBF0000C5
:103970002DE9F04F91B042F2E07A47F26C680825E9
:10398000C2F2010AC0F60408E94691E081B200EBF8
:10399000D13000B2411006294FF00601C8BF4110D6
:1039A000DAF800304FF00602B8BF421058F8230092
:1039B000891AB0FBF1F606FB1100591C10443F298F
:1039C00088BF0021CAF800100FFA8BF102B220461E
:1039D0001CF07AFE42F2EC712046C2F201014FF473
:1039E000003218F0A1F9DAF8000040F2011358F89B
:1039F0002010C1F200030A09A2FB03231A0C1205CE
:103A0000A2EB13420130A1EB02113F2888BF002036
:103A10004FF6FF7BCAF80000F820C1F3423227EAD4
:103A20000B0700EA11403A4401F4E053104401F05E
:103A3000F80140EAC30040EA4117204639464FF4F6
:103A400000321CF0E5FF2046002107F01DFFDAF8E8
:103A5000000048F21F5258F82010C5F2EB12A1FBEB
:103A600002239A09C823013002FB13113F2888BFA3
:103A70000020CAF80000484601F1320607F0EAF9D2
:103A800043F66110C0F6000001900020CDE9080067
:103A900040F26710CDE90A06484600940E96ADF84C
:103AA00040B007F057FA204604F0C2FB013D43D076
:103AB00042F2E870C2F20100006807F0DFFA4FF648
:103AC000FF720021C0F20F0204461CF0B9F90BF09E
:103AD00059FA0BF071FA20F001010C2902D14FF0D4
:103AE000060B1EE081B200EBD13000B24110062976
:103AF0004FF00601C8BF4110DAF800304FF006025F
:103B0000B8BF421058F82300891AB0FBF1F606FB43
:103B1000110000EB020B581C3F2888BF0020CAF898
:103B200000000BF02FFA0BF047FA20F001010C29EE
:103B30007FF42CAF062047E711B0BDE8F08F0000FE
:103B400010B542F2EC74C2F2010420461EF09CFE55
:103B500020460D211EF0BCFE40F22810C2F20000EB
:103B600000787F210028204608BFFF211EF0A8FE14
:103B7000BDE81040FFF7FCBE10B542F2EC74C2F293
:103B8000010420461EF080FE204602211EF0A0FE09
:103B900040F22810C2F2000000787F210028204661
:103BA00008BFFF211EF08CFEBDE81040FFF7E0BE0D
:103BB000B0B592B00446808FF8B101AD284607F049
:103BC00049F946F24950C0F602000290A08F0194D4
:103BD0000C900020CDE9090001200B904AF62970D5
:103BE000C0F60000089046F24D50C0F60200049066
:103BF000284607F0AFF912B0B0BD204612B0BDE8BC
:103C0000B04022F04FBC00002DE9F04182B00BF033
:103C1000B9F942F2E472C2F201021278016845F287
:103C20001573C0F602034B62AAB1406840B1016847
:103C300040F63832C2F200021160012120F074FF18
:103C400007F002F9016840F6A822C2F200021160F2
:103C5000012120F069FF0BF095F90BF0E9F94FF61F
:103C6000FF75C0F20F0500212A46044600261CF00D
:103C7000E7F82046FF2100221CF0E2FE204615F066
:103C8000FFF842F67407C2F20107042104223860EB
:103C90001CF0A6FC204615F0F3F842F6300839680F
:103CA000C2F201080D220023C8F80000009618F0A7
:103CB000A1F8204618F09AFE42F2E877C2F2010716
:103CC00000212A4638601CF0BBF83D6820461AF0F7
:103CD000D3FB0646204619F077FCD8F80010498B34
:103CE000401A043802B2284631461CF0EDFC386810
:103CF00005210022002318F06FF842F2EC70C2F2A6
:103D000001001EF0B7FC204602B0BDE8F0411CF0F7
:103D100063BF0000B0B5B9B180290A4609D3B1FA32
:103D200081F2C2F11A024FF0FF3303FA02F2D243DA
:103D30000A447F2A0CD8D31702EB93724FEAA20CE5
:103D40000024082C0FDD3AE000244FF0000C36E090
:103D5000B2FA82F3C3F11A04E24082F0200CC3F1FC
:103D60001904082C2BDC00EB840252694FF0FF3E53
:103D70000EFA0CF31A400CD052B192FAA2F2B2FA37
:103D800082FC00EBC41202EB8C02926BCAB93BE0DE
:103D9000FEE70269631C0EFA03F312EA030E0AD06F
:103DA0009EFAAEF2B2FA82F400EB84025269BEF1DE
:103DB000000FE1D103E00022BEF1000FDCD10022B0
:103DC00012B3536823F003038B4200D2FEE7D3689B
:103DD000E3B19168E1B1CB60996000EBC41303EBF0
:103DE0008C0E5EF8383F93420ED18142CEF800101F
:103DF0000AD100EB84034FF0010E5D690EFA0CF15D
:103E000025EA0101596121B11046B0BDFEE700BFAE
:103E1000FEE701690EFA04F3994301611046B0BD53
:103E2000F0B54A68032A09D922F003030E1D9B1935
:103E300006D05D68EC0704D10846F0BDFEE700BF80
:103E4000FEE7032A0CD925F003027F2A09D8D517EB
:103E500002EB95724FEAA20E4FF0000C0AE000BF91
:103E6000FEE7B2FA82F5C5F11A04E24082F0200EB4
:103E7000C5F1190CDD686DB39A686AB300EBCC1418
:103E8000D560AA6004EB8E0555F8384F9C4211D1DD
:103E900082422A600ED100EB8C040127656907FA83
:103EA0000EF225EA0202626122B9026907FA0CF7F2
:103EB000BA4302614868032810D95A6822F0030205
:103EC00010440430032848600AD920F003008151CF
:103ED0000846F0BDFEE700BFFEE700BFFEE700BFFB
:103EE000FEE70000B0B531B122B14B68DC0704D168
:103EF000FEE700BFFEE70020B0BD23F0030402F19F
:103F000010039C4211D2486803280DD920F0030207
:103F100001F10800835823F0020383504A6822F01D
:103F200001024A60B0BD00BFFEE701F1040C0CEBDA
:103F3000020303F10B0503F1080E25F00305AE455E
:103F400001D000BFFEE75D68A41A043C05F003053C
:103F500025430B2C5D602DD94C6804F003042243EB
:103F60004A605A68032A27D922F003055EF8052023
:103F700042F002024EF805205A68754442F00104EE
:103F80005C604C6845F8043C032C17D924F0030509
:103F900045F80C1042F0030522F003027F2A5D6011
:103FA0000DD8D51702EB95724FEAA20C4FF0000E18
:103FB0000EE000BFFEE700BFFEE700BFFEE7B2FA7B
:103FC00082F5C5F11A04E24082F0200CC5F1190E09
:103FD00000EBCE1202EB8C0454F8382F92B19BB157
:103FE000C3E90220D36023600122036902FA0EF4C0
:103FF0002343036100EB8E00436902FA0CF21A437B
:10400000426180E7FEE700BFFEE7000010B542F224
:10401000EC74C2F2010420461EF036FC2046032157
:104020001EF07EFC40F22810C2F2000000787F21D2
:104030000028204608BFFF211EF066FCBDE81040A6
:1040400022F09CBA10B542F2EC74C2F20104204690
:104050001EF01AFC204647F6FF711EF037FD204681
:1040600003211EF05DFC40F22810C2F2000000782F
:104070007F210028204608BFFF211EF045FCBDE837
:10408000104022F07BBA000010B542F2EC74C2F28C
:10409000010420461EF0F8FB204608211EF016FD04
:1040A000204603211EF03CFC40F22810C2F2000022
:1040B00000787F210028204608BFFF211EF024FC45
:1040C000204604211EF028FCBDE8104022F056BA1C
:1040D00010B542F2EC74C2F2010420461EF0D4FB8B
:1040E000204608211EF0F2FC204603211EF018FC99
:1040F00040F22810C2F2000000787F2100282046FC
:1041000008BFFF211EF000FC20460C211EF004FC1D
:10411000BDE8104022F032BA10B542F2EC74C2F29F
:10412000010420461EF0B0FB204608211EF0CEFC04
:10413000204603211EF0F4FB40F22810C2F20000DA
:1041400000787F210028204608BFFF211EF0DCFBFD
:10415000BDE8104022F012BA10B542F2EC74C2F27F
:10416000010420461EF090FB204608211EF0AEFC04
:10417000204603211EF0D4FB40F22810C2F20000BA
:1041800000787F210028204608BFFF211EF0BCFBDD
:10419000204603211EF0C0FBBDE8104022F0EEB91E
:1041A00010B542F2EC74C2F2010420461EF06CFB22
:1041B000204608211EF08AFC204603211EF0B0FB99
:1041C00040F22810C2F2000000787F21002820462B
:1041D00008BFFF211EF098FB204602211EF09CFB29
:1041E000BDE8104022F0CAB910B542F2EC74C2F238
:1041F000010420461EF048FB204608211EF066FC04
:10420000204603211EF08CFB40F22810C2F2000071
:1042100000787F210028204608BFFF211EF074FB94
:10422000204606211EF078FBBDE8104022F0A6B91A
:10423000B0B582B0044614F023FB054614F060FBD1
:1042400038B1208FE08620461AF062FC012002B0CF
:10425000B0BD606A01211AF07DF918B1204611F055
:10426000E3FF2AE02046012118F06EFB4FF6FF71B4
:10427000606A6187012117F011FD2046202100228C
:1042800012F062F9218FE08E81420BD020870190DD
:1042900001AA20461C2112F057F90128D7D1204647
:1042A0001AF036FC284614F037FB042805D12046C6
:1042B00019F084F9002113F0B7F8012002B0B0BD65
:1042C000B0B512F03DF9044619F0DAF9054620467A
:1042D00008F010FC014628460122BDE8B0401FF05E
:1042E000D3B900002DE9F04F8BB092468946089073
:1042F000C8784BF629214BF63522C0F60001C0F6EE
:104300000002079310F0010008BF0A464BF6C111E6
:10431000DDF860B04BF68D18C0F600010592C0F6CE
:1043200000080A4608BF42460692002808BF884691
:1043300005E000BF4FF0000C5FEACC7057D0BBF82F
:104340000200DBF81020BBF80410A0EB010E9AB1BC
:10435000DBF80C1001F10803002106E01F88AEEB2A
:10436000070E013A03F1140307D01F7AFF07F5D1B6
:104370009F883944F5E700BF0021DBF81020002AB0
:10438000D8D0002200274FF0000C27E00DB20FFA22
:104390008EF393FBF5F3E568B4F904006B43B4F9CD
:1043A00006501BB2AB42B8BF1D468542D8BF05467A
:1043B0009D421EBF46F0010020744FF0010CDBF857
:1043C0000C00AEEB050E104483890581C91ADBF899
:1043D00010000137874202F11402ADD2DBF80C6005
:1043E000B418267CF507F2D10D04CFD1FEE708986A
:1043F0000021162219F0C6FEDBF8081099F80060BB
:104400000AB2F71EFFB2022A3346B8BF0223032FB7
:104410004FF0FF3728BF334657FA83F7042F0AD8E7
:10442000BBF80230DFE807F0030A121E2A001699D3
:104430000025CE1A2EE0002600252BE0169A19B290
:10444000511A01EBD1714E10002523E0169AD21AB1
:104450004FF4803303EB014112B2091492FBF1F5E2
:104460002E4617E01699C91A09B291FBF2F291B2E1
:1044700002EBD13109B215464E100BE0169A002618
:10448000D21A0023CFF6FF7303EB014112B20914D5
:1044900092FBF1F599F80310089CC907C0B204908B
:1044A00005D0012803D1204619F022F80644204601
:1044B000514618F099FF002800F0528107460798EE
:1044C000824500F04D81179801242844C0F206046B
:1044D000029000BF384621461AF044F8C8B199F856
:1044E0000300400708D408980AF1010A806841686F
:1044F0008A4507DB2EE100BF0898BAF1010AC0F235
:1045000029818068006850F82A70002F40F02481CB
:1045100026E140F69400C2F20000028838460021ED
:1045200019F030FE000611D0DBF81000354658B106
:10453000DBF80C10083100BF51F8082CBA420BD040
:10454000013801F11401F7D1002406E0788C3546DA
:1045500020F4C06078842FE00C8899F80310788CE0
:10456000C9074FF4806120F4C06008BF4FF40071A8
:10457000084407F11406069978843046884780B2CB
:10458000844219D038461AF0C3FA7869B969059A95
:10459000CDE9090121B2304690473846292109AAC0
:1045A00011F0D2FF384619F06BF822213A4611F08B
:1045B000CBFF38461AF0ACFA99F8010001280ED06A
:1045C000022813D1BBF90000013020F0010407F1EB
:1045D0001400C047201A00EBD070461007E0BBF86B
:1045E000004007F11400C047261A00E0002699F8A1
:1045F00003000196C00707D00498012804D106994A
:1046000007F1140088472D1A384600216A2219F054
:10461000B9FD0446384600216B2219F0B3FD064669
:10462000384619F029FF0390384618F0CDFF04F4FE
:10463000C041A646B1F5005F16D10FFA8EF121F404
:10464000C041B1F5FA6F0FDCB1F57A7FC8BFC1F593
:104650007A71039A514348F21F52C5F2EB1251FB93
:1046600002F14A1102EBD17E06F4C04103953546B2
:10467000B1F5005F14D129B221F4C041B1F5FA6F50
:104680000EDCB1F57A7FC8BFC1F57A71484348F2B4
:104690001F51C5F2EB1150FB01F0411101EBD07538
:1046A0003A46149E32F8140F039C99F8031076448E
:1046B0002346301A0092B2F802C011F00101019AAB
:1046C00008BF1346C618159800292844A0EB0C0013
:1046D00008BF2246841846EA0400000417D0384672
:1046E0001AF016FAB88A398B3044B8828819F98AD8
:1046F00038830819798BF8820819788338461AF0BC
:1047000007FA31B222B2384600231AF0A3FA99F818
:104710000300049FC00705D0012F03D1DDE9020685
:10472000361A06E0009806998847DDE9021211441E
:104730000E1899F8030008990124C0F206044007F6
:1047400003D488680AF1010AD1E6BAF1010A01DB53
:104750008868D7E600271FB1079882457FF4BAAE74
:104760000BB0BDE8F08F00002DE9F041022A4FEABE
:10477000112350D900F00707C0F34236C1F3C40E2D
:10478000C0F3C404C1F3423C46EAC706744401F0D6
:10479000070866441F2C06EBC806C0F3042003F08C
:1047A0001F034FF01F0528BF2C463F2E184428BF7B
:1047B0003F26F7081F2847EAC40438BF0546FF2AEA
:1047C00045EA461326D0D8B2E5B24009ED0864F3B5
:1047D000C50003F01F03554382F0FF06504361F309
:1047E000C50CC1F304245A431EFB065748F2810549
:1047F0001CFB060014FB06226F4368436A433F0D0F
:10480000810E800CD20DFF0862F3040067F3DF0114
:10481000034600E02146C8B240EA0320BDE8F0812B
:10482000F0B5022A4FEA112350D9C0F3C40EC1F3E8
:10483000C40C0CFB0EFEF82404EA9E0EC0F3042404
:1048400003F01F036343C0F34234254660F3C505FC
:10485000C1F3423061F3C50045436E0A44EAC60421
:104860004EEA552E44436FF01F0505EA5404FF2A13
:1048700044EA531329D04FEADE05554382F0FF0680
:104880001CFB065548F2810CDCB205FB0CF52F0D24
:104890000EF00705640944EAC505554303F01F03FC
:1048A00010FB0650C1F304255A4315FB062200FBFA
:1048B0000CF002FB0CF2810E800CD20DFF0862F3AB
:1048C000040067F3DF01034600E07146C8B240EA26
:1048D0000320F0BDF0B5022A4FEA11234DD900F0B4
:1048E0000706C0F34237C0F3C404C1F3423C47EAB1
:1048F000C606C0F3042003F01F03C1F3C40E01F089
:1049000007056644181AAEEB040406EBC50520EA59
:10491000E07024EAE474C5F3C20600F01F0046EA22
:10492000C404FF2A40EA451326D0D8B2E5B24009B4
:10493000ED0864F3C50003F01F03554382F0FF0642
:10494000504361F3C50CC1F304245A431EFB0657C0
:1049500048F281051CFB060014FB06226F436843E6
:104960006A433F0D810E800CD20DFF0862F30400F4
:1049700067F3DF01034600E02146C8B240EA0320A6
:10498000F0BD000070B582B0044611F0D9FD0546B7
:10499000204611F0BDFD0646284618F071FE0A2E8D
:1049A000044609D02B2E48D1618D2046002202B04A
:1049B000BDE870401EF068BE13F062FF10B10079D0
:1049C00001283AD001A9284618F0D6FE94F82C0008
:1049D00010F00C0F16D0284618F08AFD0546204628
:1049E0000021162219F0CEFBC1B2BDF9040005EB7F
:1049F000D57201294FEA620114BF0844081A90FBDE
:104A0000F5F00AE0284618F057FDBDF9061000EB56
:104A1000D07201EB620191FBF0F000B220EAE07588
:104A2000668D2046294601221EF02EFEB54204D096
:104A300020461C21002211F087FD02B070BD00004D
:104A400043F60801C4F202010A6800F00F0022F0E8
:104A5000F00242EA001008607047000043F60801C7
:104A6000C4F202010A6800F0070022F4E05242EAB0
:104A7000802008607047000043F60801C4F202017C
:104A80000A6800F0070022F4604242EA4030086001
:104A90007047000043F6A401C4F202010A6801282D
:104AA00022F0300208BF30320A607047042888BF05
:104AB0007047DFE800F0030C19262F0043F60000D2
:104AC000C4F20200026861F300020260704743F61C
:104AD0000000C4F20200026801F0010122F48032F9
:104AE00042EA01410160704743F60000C4F202004F
:104AF000026801F0010122F0807242EA0161016066
:104B0000704743F60000C4F20200026F61F3000236
:104B10000267704743F60000C4F20200426F61F37F
:104B2000000242677047000010B543F60401C4F26A
:104B300002014A68C2F3810341F20022022BC0F253
:104B40007A020DD0FBB9D1F89C305B041BD5D1F8AB
:104B50009C30DB0444BF46F60042C0F2DC2212E087
:104B60000B680B68D1F800E0C3F3881C0B6814A431
:104B7000C3F30243E35C0EF00F0E0CFB02F20EFBDC
:104B800003F3B2FBF3F202604A680FA3C2F303120D
:104B90009A5C03684EF6F02423FA02F242604B68F6
:104BA000C0F60204C3F38223E35C22FA03F3C3607A
:104BB0004968C1F34231615C22FA01F1816010BDA4
:104BC00001020408102000000000000000000000A6
:104BD000010203040607080943F60002010CC4F2AF
:104BE0000202895800F01F0021FA00F000F00100D5
:104BF0007047000043F600010020C4F2020100BF2C
:104C00000A68920304D4B0F5405F00F10100F7D3C5
:104C10000868C0F34040704743F6000200F01F03ED
:104C20004FF0010CC4F2020201290CFA03F14FEA21
:104C30001040835814BF23EA010119438150704783
:104C400010B543F6040CC4F2020C28B9DCF89CE061
:104C50004EF4805ECCF89CE0DCF800E000F001044B
:104C60002EF4800040EA8450CCF80000DCF800000C
:104C700061F38E10CCF80000DCF8000003F00701AF
:104C800062F30300CCF80000DCF8000020F4E02020
:104C900040EA0140CCF8000010BD000043F60000DF
:104CA000C4F20200016841F0010101600168890756
:104CB000FCD5816821F00301816000BF816811F09B
:104CC0000C0FFBD101684FF6FF72CFF6F262114074
:104CD00043F2020201600021C0F2030281604260DF
:104CE000C0F8A0104FF41F01C160704743F60801DF
:104CF000C4F202010A6860F301020A607047000012
:104D000043F60800C4F202000068C0F38100704757
:104D100010B582B090F8542002F001038B4222D0EB
:104D2000002918BF012102F0FE021144426A80F8F6
:104D30005410B0F848C0918AB0F84CE001EB0C0375
:104D4000ADF80030D28AB0F84E30B0F84A40714425
:104D5000ADF80410D1181444ADF806106946ADF84A
:104D6000024019F005FF02B010BD000088B21146E4
:104D700009F04EB980B5042026F0EEFE40F618008A
:104D8000C2F2000000684DF68361C4F21B31A0FB43
:104D90000101880C40F65441C2F200010860086825
:104DA0004FF47A71484340F65041C2F20001086066
:104DB00080BD000080B5002808BF80BD4EF2100104
:104DC00040F6504ECEF20001C2F2000E4FF0320C0F
:104DD000002300BF82B2332A06D3DEF80020323827
:104DE00002FB0CF24A6004E0DEF800005043486029
:104DF00000208B600A6842F001020A600A6802F033
:104E00000112012AFAD00A6822F001020A600204A3
:104E10008B60DFD180BD000070B540F21F00C2F290
:104E200000000078002808BF70BD14468A880888F2
:104E3000CB884988161A5D1A0135FBF74DFE002014
:104E4000C4F20200102104F0D1FA022000EB460067
:104E5000684381B22046BDE87040FBF7FBBD00000F
:104E6000026861F3000202607047000046F20441EC
:104E7000B0F1805FC4F2020192BF086020F0704080
:104E8000C1F800027047000046F20041C4F202017E
:104E9000B0F1805F88BF01F500710968084018BF54
:104EA0000120704702684BF6EF731A4002600A89CE
:104EB00003681A4302604A7C036802F0030223F489
:104EC000405343EA02320260CA7B036802F00302E5
:104ED00023F4406343EA822202608A7B036802F083
:104EE000030223F4407343EA022202604A7B036810
:104EF00002F0010223F0800343EAC21202600A7B3F
:104F0000036862F3861303600A7C036862F3451347
:104F10000360B1F80AC043684FF6FF7223EA020249
:104F2000624442600A6882604968C160704700005C
:104F3000002A02680CBF22EA010111430160704798
:104F4000016821F001010160002101604160816080
:104F5000C16040F2FF6100EA010246F20441B2F58D
:104F6000C16FC4F2020105D3D208D02A88BF7047AE
:104F700001F5007100F0FC004CF6CD420838CCF68B
:104F8000CC42A0FB02026FF0030000EA92000F2265
:104F90000B6802FA00F0184308607047D0F800214F
:104FA00061F30002C0F8002170470000026861F35D
:104FB00006020260704700002DE9F04F9BB00E46DC
:104FC000C9780329C0F00A82B6F9207005901388C9
:104FD00051889088D288022FADF86430ADF8661001
:104FE000ADF86800ADF86A201BDB96F82270FD2F43
:104FF00017D33788AFB196F82370C7F3C0052B4499
:10500000ADF86430C7F380031944ADF86610C7F3F8
:105010000011401AADF86800C7F34000101AADF84F
:105020006A00059819A9826817A8FCF7E5FB002813
:1050300000F0D481F07B062110F0070008BF0421A6
:10504000775A71890DF16408791A18BF01464046F4
:1050500002910BF04DFA0446B0780025CDE91555C4
:10506000CDE91355CDE9115510958DF85900ADF8DE
:1050700048703CB93088002804BF02985FEA00609D
:1050800000F07781F778BDF86800BDF86410FC2F58
:1050900088BF4FF0FF37401ABDF86A10BDF8662090
:1050A00001300FFA80FB881A01300FFA80F8404671
:1050B000B6F900A0C345B8BF5846BAEB600FA8BF09
:1050C0004FEA600ABDF86000BDF85C10BAF1000F4D
:1050D000A0EB01004FF00001C8BF012101302143C6
:1050E000B31D01290FFA80F911D148461E4615F06B
:1050F0000BFC05460FFA8AF20AA819A900230BF047
:10510000C1FE0AA800210AF093FF334601E04FF6E2
:10511000FF700190BDF85C00BDF86010ADF8200094
:1051200008A810901590FF20ADF824108DF85800B5
:10513000184659464246139511F04CFE68B1029943
:10514000C9B2022909D18368BDF95C10BDF9642098
:1051500003EB4101A1EB420111910490DCB3BDF9D5
:105160005E40BDF96200844200F323810298394613
:10517000C7B2CEB20DF140080BE000BF0598414622
:105180000CF000FEBDF96200844204F1010480F2DB
:105190001081284631464A46ADF82240ADF82640F7
:1051A00015F08EFDBDF95C1022B228464B460BF07F
:1051B00051F9012808BF0220012F8DF85000DDD1E0
:1051C0000498BDF966108068A0EB410030F8140027
:1051D000ADF84800D2E700970FFA8AF0059F012842
:1051E00061DB00984FF00008C6B20298C0B203908D
:1051F00008E000BF384610A90CF0C4FD08F1010812
:10520000C24550D0BDF86600BDF95E10404404B2FE
:10521000BDF86A008C42A0EB08000FFA80FB03DAAD
:10522000BDF962008345E9DC284631464A4615F05F
:1052300047FDBDF92010284622464B460BF00AF9DF
:10524000BDF95E10012808BF02208C428DF8500085
:1052500013DB0398ADF822400128ADF8264008D1B1
:105260000499BDF966008968201A31F81000ADF87C
:105270004800384610A90CF085FDBDF96200834551
:10528000BCDC0398ADF822B00128ADF826B0B1D14E
:105290000499BDF966008968ABEB000031F8100095
:1052A000ADF84800A6E7BDF86400BDF86610ADF89B
:1052B0001800BDF86800ADF81C0001EB0A00BDF84D
:1052C0006A10ADF81A00A1EB0A00ADF81E0006A89E
:1052D0000BF00EF90028834604BF02985FEA0060D5
:1052E00053D0BDF96A00BDF96610009BA0EB0A021D
:1052F00001EB0A0494424FF001028DF858308DF80A
:10530000502056DC401AA0EB4A00461C02985FFA77
:1053100083F85FFA80FA10AF07E000BF39460CF05F
:1053200031FD013E04F1010443D0BBF1000F0DD06B
:10533000284641464A4615F0C3FCBDF95C1022B22E
:1053400028464B460BF086F88DF850000598BAF1C8
:10535000010FADF82240ADF82640DFD104998A68EC
:10536000BDF96610A2EB410131F81410ADF84810F8
:10537000D4E7F07810A98DF858000598CDF8408052
:105380000CF000FD1BB0BDE8F08FBDF86600BDF865
:105390006A105044ADF82200A1EB0A00ADF82600D7
:1053A000009810A98DF858000020139038460CF092
:1053B000E9FC15B1284615F043FB019A4FF6FF7141
:1053C00090B2049C884205D010B20BF09FFF0AA84F
:1053D0000BF06EF814B1204611F0F4FC1BB0BDE8E0
:1053E000F08F00002DE9F04790B08A460969002946
:1053F00000F01F8180469AF81A000328C0F0198136
:105400001646D8F808200EAC20463146FCF7F4F9D1
:10541000002800F00E81D8F80890C8F80840DAF8A3
:10542000100013F01FFA02284FD1DAE90412002706
:1054300041F6FF70CDE900700DA8002302971FF020
:105440000FFE3088B18803AC091A01318AB201EB32
:10545000D231BDF8342009B200EB610002EBD23149
:1054600009B2A0EB6100ADF82C0010447188F288FD
:105470000138ADF83000501A013082B200EBD23062
:10548000BDF8362000B201EB600002EBD23109B268
:10549000A0EB6100ADF82E0010440138ADF83200E9
:1054A00020460AF031FDDAE904309AF81A10039028
:1054B000BAF818008DF82610ADF818000BAA40466F
:1054C000214600970AF0EEF9B1E0DAF810000DACD1
:1054D000214612F09BFB012840F0A98003A80AF0A6
:1054E000CDF99DF818009AF802109AF81C7001F096
:1054F0000F0100F0F0009AF81A209AF81B300844C7
:10550000BAF81810002F8DF81800ADF814108DF8A7
:1055100016308DF8172055D09DF83720BDF835305E
:10552000B6F90200B6F9061043EA024200EB523225
:10553000013A8842ADF82E00ADF8322077DC651CC8
:1055400003AF0BAC15E000BFA8782988BDF82E206A
:1055500041EA004002EB5031BDF83220ADF82E1088
:1055600002EB5030B6F9062009B29142ADF8320094
:105570005DDC2A88B6F90000B6F90410C2F38A028D
:105580000244013A8842ADF82C00ADF83020DBDC53
:10559000DAF8103040463946224609F0C9FF28881B
:1055A000BDF82C10BDF83020C0F38A00014410442F
:1055B000B6F90420ADF82C1009B29142ADF83000D4
:1055C000E6DDC1E73088B188BDF83530091A013110
:1055D0008AB201EBD2319DF8372009B200EB6100AD
:1055E00043EA0241C3F3C902801A7288F788C3F301
:1055F0008A03BF1A0137BEB207EBD637ADF82C00CD
:105600003FB2A2EB9132184402EB67020138ADF8C9
:10561000300002EB51300138DAF81030ADF82E20AE
:10562000ADF8320003A90BAA404609F081FFC8F883
:10563000089010B0BDE8F0872DE9F04FA9B0349F75
:10564000DDE932BA044608469946154688460AF00E
:105650004FFF5BEA0901064608BF002E29D0A26869
:1056600020A84146FCF7C8F8002800F01383BDF8D5
:105670008400BDF88010401A013007B222A81C2116
:1056800015F064FB384615F03FF9B9F1010FAA4651
:10569000259011940997C0F280801AAD28464146A2
:1056A0004A4600230BF0EEFB284600210AF0C0FC1E
:1056B00075E022A81C21119415F048FB1AA822902D
:1056C000ADF890A08DF8A070B8F90240B8F90400C8
:1056D000B5F902A04746B8F90030B5F90020B5F990
:1056E000041037F906BF109535F9069F0F90ADF8F5
:1056F0006C00AAF1010054450E91ADF86830ADF888
:105700006A40ADF86E0007DC119822A90D921E4682
:105710000CF038FB0D9A33462888CB4500F1010088
:10572000ADF86A003888ADF86E0008DB119822A940
:1057300016461F460CF026FB3B4632462F46109D70
:10574000B8F800002988ADF86800481E294654457D
:10575000C8BF41464988ADF86C003888119C934217
:10576000ADF86A10ADF86E0003DC22A920460CF0FB
:1057700009FBA888DDE90E210130ADF86800B8F812
:1057800004009142ADF86C00C0F2848222A9204648
:105790000CF0F8FA29B0BDE8F08F4FF6FF7014ADA9
:1057A0000B90349C284651465A4601230BF06AFB65
:1057B000284600210AF03CFC0C9012A82290279069
:1057C0003398B8F90020ADF89000B8F90400BAF9A0
:1057D00000E08DF8A040B8F9024002EB0907BAF9E1
:1057E00004B0B8F90630BAF902107745A0EB090504
:1057F000CDF840A0BAF906C0D8BF77460D905D45F8
:1058000004EB0900A8BF5D468842D8BF08469A4607
:10581000A3EB09030A9063453598A8BF63468DF84A
:10582000A100CDE90E1406B3BDF88000BDF9825089
:10583000ADF84800BDF986005746BDF88420DDF874
:1058400044A0099E8542ADF84C2040F3848114A801
:105850000AF02EFE0C980BF059FD0B9C4FF6FF71D1
:10586000A0B2884240F00D8211E2E2454FF0000004
:105870000593B8BF01208C424FF00006C8BF012637
:10588000069272454FF00002CDF810E0C8BF012229
:10589000DDF834E00023DE45B8BF01231A4342EAB5
:1058A0000603EA1B013212B2312A4FF0000240EA2D
:1058B00003000795C8BF012240EA020601208DF8C7
:1058C000980011988C42554682467246CDF820B019
:1058D000039714DC9EB10798ADF84870ADF84C0002
:1058E000481EADF84E0022A95046ADF84A40644625
:1058F0000CF048FADDF820B00D9A039FA446002072
:10590000CDE901C56545B8BF012086F00101084316
:1059100014D110980799C088ADF84C10B8F806104B
:105920000130ADF84A00ADF84E1022A95046ADF84E
:1059300048700CF027FADDF820B00D9A0698049D07
:10594000A84215DC1099B8F800000988ADF84800A5
:10595000481EADF84C000A9822A9ADF84A000598F7
:10596000ADF84E0050460CF00DFADDF820B00D9A5F
:105970005A4512DB1098B8F804108088ADF84C1026
:105980000130ADF848000A9822A9ADF84A00059800
:10599000ADF84E0050460CF0F5F9BDF88010BDF89A
:1059A0008400002EADF8481000F00E81039A00B27A
:1059B00012B2013A8242B8BF1046411A01310CB20C
:1059C000012CADF84C0057DB06984FF00008A842B8
:1059D000D8BF4FF0010803DDDDE90E1088421FDC5F
:1059E0000A98BDF9827006B2BE4219DD22AD00BF31
:1059F00025982146ADF84A70ADF84E7015F0E8F9DB
:105A00002598BDF948103AB223460AF023FD8DF8D7
:105A10009800504629460CF0B5F90137BE42E7D14F
:105A2000DDE9012100209142A8BF012040EA0800E1
:105A3000012821D10599BDF986000EB286421BDAF4
:105A400022AD00BF259801362146ADF84A60ADF879
:105A50004E6015F0BDF92598BDF9481032B22346C5
:105A60000AF0F8FC8DF89800504629460CF08AF9A7
:105A7000BDF986008642E5DB0799BDF9800009B2D1
:105A800001318142C8BF0846BDF88410ADF8480016
:105A9000081A013004B2012CADF84C10C0F2EA80B3
:105AA0000D9808994FF000088842A8BF4FF00108F0
:105AB00003DADDE90E1088421EDC0A98BDF9827017
:105AC00006B2BE4218DD22AD25982146ADF84A70D7
:105AD000ADF84E7015F07CF92598BDF948103AB232
